{
  "_format": "hh-sol-artifact-1",
  "contractName": "OXGameV2",
  "sourceName": "contracts/OXGameV2.sol",
  "abi": [
    {
      "inputs": [
        {
          "internalType": "address",
          "name": "_oracle",
          "type": "address"
        }
      ],
      "stateMutability": "nonpayable",
      "type": "constructor"
    },
    {
      "inputs": [],
      "name": "AlreadyJoined",
      "type": "error"
    },
    {
      "inputs": [],
      "name": "AlreadySubmitted",
      "type": "error"
    },
    {
      "inputs": [],
      "name": "GameNotStarted",
      "type": "error"
    },
    {
      "inputs": [],
      "name": "InvalidDepositAmount",
      "type": "error"
    },
    {
      "inputs": [],
      "name": "NotOracle",
      "type": "error"
    },
    {
      "inputs": [],
      "name": "PlayerNotActive",
      "type": "error"
    },
    {
      "inputs": [],
      "name": "PoolFull",
      "type": "error"
    },
    {
      "inputs": [],
      "name": "PoolNotActive",
      "type": "error"
    },
    {
      "inputs": [],
      "name": "RoundNotActive",
      "type": "error"
    },
    {
      "anonymous": false,
      "inputs": [
        {
          "indexed": true,
          "internalType": "enum OXGameV2.ChainType",
          "name": "chainType",
          "type": "uint8"
        },
        {
          "indexed": false,
          "internalType": "address[]",
          "name": "winners",
          "type": "address[]"
        },
        {
          "indexed": false,
          "internalType": "uint256",
          "name": "prizePerWinner",
          "type": "uint256"
        }
      ],
      "name": "GameEnded",
      "type": "event"
    },
    {
      "anonymous": false,
      "inputs": [
        {
          "indexed": true,
          "internalType": "enum OXGameV2.ChainType",
          "name": "chainType",
          "type": "uint8"
        },
        {
          "indexed": true,
          "internalType": "address",
          "name": "player",
          "type": "address"
        },
        {
          "indexed": false,
          "internalType": "uint256",
          "name": "round",
          "type": "uint256"
        },
        {
          "indexed": false,
          "internalType": "string",
          "name": "reason",
          "type": "string"
        }
      ],
      "name": "PlayerEliminated",
      "type": "event"
    },
    {
      "anonymous": false,
      "inputs": [
        {
          "indexed": true,
          "internalType": "enum OXGameV2.ChainType",
          "name": "chainType",
          "type": "uint8"
        },
        {
          "indexed": true,
          "internalType": "address",
          "name": "player",
          "type": "address"
        },
        {
          "indexed": false,
          "internalType": "uint256",
          "name": "playerCount",
          "type": "uint256"
        }
      ],
      "name": "PlayerJoined",
      "type": "event"
    },
    {
      "anonymous": false,
      "inputs": [
        {
          "indexed": true,
          "internalType": "enum OXGameV2.ChainType",
          "name": "chainType",
          "type": "uint8"
        }
      ],
      "name": "PoolCreated",
      "type": "event"
    },
    {
      "anonymous": false,
      "inputs": [
        {
          "indexed": true,
          "internalType": "enum OXGameV2.ChainType",
          "name": "chainType",
          "type": "uint8"
        },
        {
          "indexed": true,
          "internalType": "uint256",
          "name": "round",
          "type": "uint256"
        },
        {
          "indexed": false,
          "internalType": "bool",
          "name": "correctAnswer",
          "type": "bool"
        },
        {
          "indexed": false,
          "internalType": "uint256",
          "name": "survivorCount",
          "type": "uint256"
        }
      ],
      "name": "RoundEnded",
      "type": "event"
    },
    {
      "anonymous": false,
      "inputs": [
        {
          "indexed": true,
          "internalType": "enum OXGameV2.ChainType",
          "name": "chainType",
          "type": "uint8"
        },
        {
          "indexed": true,
          "internalType": "uint256",
          "name": "round",
          "type": "uint256"
        },
        {
          "indexed": false,
          "internalType": "uint256",
          "name": "startTime",
          "type": "uint256"
        }
      ],
      "name": "RoundStarted",
      "type": "event"
    },
    {
      "anonymous": false,
      "inputs": [
        {
          "indexed": true,
          "internalType": "enum OXGameV2.ChainType",
          "name": "chainType",
          "type": "uint8"
        },
        {
          "indexed": true,
          "internalType": "address",
          "name": "player",
          "type": "address"
        },
        {
          "indexed": false,
          "internalType": "uint256",
          "name": "round",
          "type": "uint256"
        },
        {
          "indexed": false,
          "internalType": "bool",
          "name": "answer",
          "type": "bool"
        }
      ],
      "name": "SubmissionReceived",
      "type": "event"
    },
    {
      "inputs": [],
      "name": "DEPOSIT_AMOUNT",
      "outputs": [
        {
          "internalType": "uint256",
          "name": "",
          "type": "uint256"
        }
      ],
      "stateMutability": "view",
      "type": "function"
    },
    {
      "inputs": [],
      "name": "MAX_PLAYERS",
      "outputs": [
        {
          "internalType": "uint256",
          "name": "",
          "type": "uint256"
        }
      ],
      "stateMutability": "view",
      "type": "function"
    },
    {
      "inputs": [],
      "name": "ROUND_DURATION",
      "outputs": [
        {
          "internalType": "uint256",
          "name": "",
          "type": "uint256"
        }
      ],
      "stateMutability": "view",
      "type": "function"
    },
    {
      "inputs": [
        {
          "internalType": "enum OXGameV2.ChainType",
          "name": "_chainType",
          "type": "uint8"
        },
        {
          "internalType": "address",
          "name": "_player",
          "type": "address"
        }
      ],
      "name": "getPlayerInfo",
      "outputs": [
        {
          "internalType": "address",
          "name": "playerAddress",
          "type": "address"
        },
        {
          "internalType": "uint256",
          "name": "correctRounds",
          "type": "uint256"
        },
        {
          "internalType": "bool",
          "name": "isActive",
          "type": "bool"
        },
        {
          "internalType": "uint256",
          "name": "joinedAt",
          "type": "uint256"
        }
      ],
      "stateMutability": "view",
      "type": "function"
    },
    {
      "inputs": [
        {
          "internalType": "enum OXGameV2.ChainType",
          "name": "_chainType",
          "type": "uint8"
        }
      ],
      "name": "getPoolInfo",
      "outputs": [
        {
          "internalType": "uint256",
          "name": "totalDeposit",
          "type": "uint256"
        },
        {
          "internalType": "uint256",
          "name": "currentRound",
          "type": "uint256"
        },
        {
          "internalType": "uint256",
          "name": "lastRoundTime",
          "type": "uint256"
        },
        {
          "internalType": "bool",
          "name": "isActive",
          "type": "bool"
        },
        {
          "internalType": "uint256",
          "name": "activePlayerCount",
          "type": "uint256"
        },
        {
          "internalType": "uint256",
          "name": "totalPlayerCount",
          "type": "uint256"
        }
      ],
      "stateMutability": "view",
      "type": "function"
    },
    {
      "inputs": [
        {
          "internalType": "enum OXGameV2.ChainType",
          "name": "_chainType",
          "type": "uint8"
        }
      ],
      "name": "getPoolPlayers",
      "outputs": [
        {
          "internalType": "address[]",
          "name": "",
          "type": "address[]"
        }
      ],
      "stateMutability": "view",
      "type": "function"
    },
    {
      "inputs": [
        {
          "internalType": "enum OXGameV2.ChainType",
          "name": "_chainType",
          "type": "uint8"
        },
        {
          "internalType": "uint256",
          "name": "_roundNumber",
          "type": "uint256"
        }
      ],
      "name": "getRoundInfo",
      "outputs": [
        {
          "internalType": "uint256",
          "name": "startTime",
          "type": "uint256"
        },
        {
          "internalType": "bool",
          "name": "isFinalized",
          "type": "bool"
        },
        {
          "internalType": "bool",
          "name": "answer",
          "type": "bool"
        }
      ],
      "stateMutability": "view",
      "type": "function"
    },
    {
      "inputs": [
        {
          "internalType": "enum OXGameV2.ChainType",
          "name": "_chainType",
          "type": "uint8"
        },
        {
          "internalType": "uint256",
          "name": "_roundNumber",
          "type": "uint256"
        },
        {
          "internalType": "address",
          "name": "_player",
          "type": "address"
        }
      ],
      "name": "hasPlayerSubmitted",
      "outputs": [
        {
          "internalType": "bool",
          "name": "",
          "type": "bool"
        }
      ],
      "stateMutability": "view",
      "type": "function"
    },
    {
      "inputs": [
        {
          "internalType": "enum OXGameV2.ChainType",
          "name": "_chainType",
          "type": "uint8"
        }
      ],
      "name": "joinPool",
      "outputs": [],
      "stateMutability": "payable",
      "type": "function"
    },
    {
      "inputs": [],
      "name": "oracle",
      "outputs": [
        {
          "internalType": "address",
          "name": "",
          "type": "address"
        }
      ],
      "stateMutability": "view",
      "type": "function"
    },
    {
      "inputs": [
        {
          "internalType": "enum OXGameV2.ChainType",
          "name": "",
          "type": "uint8"
        }
      ],
      "name": "pools",
      "outputs": [
        {
          "internalType": "uint256",
          "name": "totalDeposit",
          "type": "uint256"
        },
        {
          "internalType": "uint256",
          "name": "currentRound",
          "type": "uint256"
        },
        {
          "internalType": "uint256",
          "name": "lastRoundTime",
          "type": "uint256"
        },
        {
          "internalType": "bool",
          "name": "isActive",
          "type": "bool"
        },
        {
          "internalType": "uint256",
          "name": "activePlayerCount",
          "type": "uint256"
        }
      ],
      "stateMutability": "view",
      "type": "function"
    },
    {
      "inputs": [
        {
          "internalType": "enum OXGameV2.ChainType",
          "name": "_chainType",
          "type": "uint8"
        },
        {
          "internalType": "bool",
          "name": "_previousAnswer",
          "type": "bool"
        }
      ],
      "name": "processRound",
      "outputs": [],
      "stateMutability": "nonpayable",
      "type": "function"
    },
    {
      "inputs": [
        {
          "internalType": "enum OXGameV2.ChainType",
          "name": "",
          "type": "uint8"
        },
        {
          "internalType": "uint256",
          "name": "",
          "type": "uint256"
        }
      ],
      "name": "rounds",
      "outputs": [
        {
          "internalType": "bool",
          "name": "answer",
          "type": "bool"
        },
        {
          "internalType": "uint256",
          "name": "startTime",
          "type": "uint256"
        },
        {
          "internalType": "bool",
          "name": "isFinalized",
          "type": "bool"
        }
      ],
      "stateMutability": "view",
      "type": "function"
    },
    {
      "inputs": [
        {
          "internalType": "address",
          "name": "_newOracle",
          "type": "address"
        }
      ],
      "name": "setOracle",
      "outputs": [],
      "stateMutability": "nonpayable",
      "type": "function"
    },
    {
      "inputs": [
        {
          "internalType": "enum OXGameV2.ChainType",
          "name": "_chainType",
          "type": "uint8"
        },
        {
          "internalType": "bool",
          "name": "_answer",
          "type": "bool"
        }
      ],
      "name": "submitAnswer",
      "outputs": [],
      "stateMutability": "nonpayable",
      "type": "function"
    }
  ],
  "bytecode": "0x608060405234801561001057600080fd5b5060405161161c38038061161c83398101604081905261002f91610126565b600280546001600160a01b0319166001600160a01b038316178155600060208190527fad3228b676f7d3cd4284a5443f17f1962b36e491b30a40b2405849e597ba5fba805460ff1990811660019081179092557fada5013122d395ba3c54772283fb069b10426056ef8ca54750cb9bb552a59e8280548216831790559282527fabbb5caa7dda850e60932de0934eb1f9d0f59695050f761dc64e443e5030a56e8054909316179091556040516000805160206115fc833981519152908290a260016040516000805160206115fc83398151915290600090a260026040516000805160206115fc83398151915290600090a250610156565b60006020828403121561013857600080fd5b81516001600160a01b038116811461014f57600080fd5b9392505050565b611497806101656000396000f3fe6080604052600436106100e85760003560e01c80639214c9791161008a578063ebdaae4a11610059578063ebdaae4a146102c1578063ec6925a714610310578063f23b1e3d1461032c578063fb87a6351461039557600080fd5b80639214c97914610211578063afc40e7f14610261578063b149ece01461028e578063e04ccd32146102a157600080fd5b806352e02fe7116100c657806352e02fe7146101745780636641ea08146101a45780637adbf973146101b95780637dc0d1d0146101d957600080fd5b806303c7cbe1146100ed57806320c00c771461012f5780634411b3eb14610151575b600080fd5b3480156100f957600080fd5b5061010d6101083660046111a4565b61040f565b6040805193845291151560208401521515908201526060015b60405180910390f35b34801561013b57600080fd5b5061014f61014a3660046111ce565b61047a565b005b34801561015d57600080fd5b50610166600a81565b604051908152602001610126565b34801561018057600080fd5b5061019461018f366004611221565b6106c2565b6040519015158152602001610126565b3480156101b057600080fd5b50610166600581565b3480156101c557600080fd5b5061014f6101d436600461125d565b610729565b3480156101e557600080fd5b506002546101f9906001600160a01b031681565b6040516001600160a01b039091168152602001610126565b34801561021d57600080fd5b5061023161022c36600461127f565b610776565b604080516001600160a01b0390951685526020850193909352901515918301919091526060820152608001610126565b34801561026d57600080fd5b5061028161027c3660046112b2565b6107f5565b6040516101269190611312565b61014f61029c3660046112b2565b61088e565b3480156102ad57600080fd5b5061014f6102bc3660046111ce565b610a83565b3480156102cd57600080fd5b506102e16102dc3660046112b2565b610c8f565b6040805196875260208701959095529385019290925215156060840152608083015260a082015260c001610126565b34801561031c57600080fd5b50610166670de0b6b3a764000081565b34801561033857600080fd5b506103766103473660046111a4565b6001602081815260009384526040808520909152918352912080549181015460029091015460ff928316921683565b6040805193151584526020840192909252151590820152606001610126565b3480156103a157600080fd5b506103e56103b03660046112b2565b6000602081905290815260409020600281015460038201546004830154600584015460069094015492939192909160ff169085565b6040805195865260208601949094529284019190915215156060830152608082015260a001610126565b6000806000806001600087600281111561042b5761042b611325565b600281111561043c5761043c611325565b815260208082019290925260409081016000908120888252909252902060018101546002820154915490955060ff9182169450169150509250925092565b6002546001600160a01b031633146104a557604051631bc2178f60e01b815260040160405180910390fd5b60008060008460028111156104bc576104bc611325565b60028111156104cd576104cd611325565b81526020810191909152604001600020600581015490915060ff16610505576040516338c0a90160e11b815260040160405180910390fd5b6003810154156105fa5760006001600085600281111561052757610527611325565b600281111561053857610538611325565b8152602080820192909252604090810160009081206003860180548352935220805485151560ff199182161782556002820180549091166001179055905490915061058590859085610d07565b816003015484600281111561059c5761059c611325565b600684015460408051871515815260208101929092527f74978ce141335d0b4568a60c33fce23a36416e807e32640ae12ddb08280facef910160405180910390a360018260060154116105f8576105f284610ec0565b50505050565b505b60038101805490600061060c83611351565b9091555050426004820155600060018185600281111561062e5761062e611325565b600281111561063f5761063f611325565b81526020808201929092526040908101600090812060038601805483529352204260018201556002808201805460ff19169055915490925090859081111561068957610689611325565b6040514281527f78dde9e442da40c0cb0f2eeddcec264e5278aa91ce9edf5ed7d1f552096127079060200160405180910390a350505050565b6000600160008560028111156106da576106da611325565b60028111156106eb576106eb611325565b81526020808201929092526040908101600090812086825283528181206001600160a01b038616825260040190925290205460ff1690509392505050565b6002546001600160a01b0316331461075457604051631bc2178f60e01b815260040160405180910390fd5b600280546001600160a01b0319166001600160a01b0392909216919091179055565b600080600080600080600088600281111561079357610793611325565b60028111156107a4576107a4611325565b8152602080820192909252604090810160009081206001600160a01b03808b16835293522080546001820154600283015460039093015491909316975091955060ff16935091505092959194509250565b606060008083600281111561080c5761080c611325565b600281111561081d5761081d611325565b815260200190815260200160002060010180548060200260200160405190810160405280929190818152602001828054801561088257602002820191906000526020600020905b81546001600160a01b03168152600190910190602001808311610864575b50505050509050919050565b60008060008360028111156108a5576108a5611325565b60028111156108b6576108b6611325565b81526020019081526020016000209050670de0b6b3a764000034146108ee5760405163fe9ba5cd60e01b815260040160405180910390fd5b600581015460ff16610913576040516338c0a90160e11b815260040160405180910390fd5b6001810154600a11610938576040516327a01e0760e21b815260040160405180910390fd5b336000908152602082905260409020546001600160a01b03161561096e57604051621d934160e11b815260040160405180910390fd5b60408051608081018252338082526000602080840182815260018587018181524260608801908152868652898552978520965187546001600160a01b03919091166001600160a01b0319918216178855925187830155516002808801805492151560ff1990931692909217909155965160039096019590955586850180549586018155835290822090930180549093169091179091559082018054349290610a1790849061136a565b9091555050600681018054906000610a2e83611351565b90915550339050826002811115610a4757610a47611325565b60018301546040519081527f0c0d31868c5543eb907c0c4697f4e6fe8f444d129829346f042ea192c62f5e839060200160405180910390a35050565b6000806000846002811115610a9a57610a9a611325565b6002811115610aab57610aab611325565b815260208082019290925260409081016000908120338252928390522060028101549192509060ff16610af1576040516396ba997560e01b815260040160405180910390fd5b8160030154600003610b1657604051633a5f7b5760e01b815260040160405180910390fd5b600060016000866002811115610b2e57610b2e611325565b6002811115610b3f57610b3f611325565b81526020808201929092526040908101600090812060038701548252835281812033825260048101909352205490915060ff1615610b9057604051639fbfc58960e01b815260040160405180910390fd5b600281015460ff1615610bb657604051633df07da560e01b815260040160405180910390fd5b60058160010154610bc7919061136a565b421115610bff57610bf8853360405180604001604052806007815260200166151a5b5953dd5d60ca1b8152506110bd565b5050505050565b3360008181526003830160209081526040808320805489151560ff19918216179091556004860190925290912080549091166001179055856002811115610c4857610c48611325565b60038501546040805191825287151560208301527f1b2a6ba89d76949b6168026d5162aa80a05cc7250dbf0abe26f279f910db03ea91015b60405180910390a35050505050565b6000806000806000806000806000896002811115610caf57610caf611325565b6002811115610cc057610cc0611325565b8152602081019190915260400160002060028101546003820154600483015460058401546006850154600190950154939d929c50909a5060ff169850919650945092505050565b6000806000856002811115610d1e57610d1e611325565b6002811115610d2f57610d2f611325565b81526020019081526020016000209050600060016000866002811115610d5757610d57611325565b6002811115610d6857610d68611325565b81526020019081526020016000206000858152602001908152602001600020905060005b6001830154811015610eb8576000836001018281548110610daf57610daf611383565b60009182526020808320909101546001600160a01b031680835290869052604090912060028101549192509060ff16610de9575050610eb0565b6001600160a01b038216600090815260048501602052604090205460ff16610e3f57610e3a88836040518060400160405280600c81526020016b2737a9bab136b4b9b9b4b7b760a11b8152506110bd565b610ead565b6001600160a01b038216600090815260038501602052604090205460ff16151586151514610e9557610e3a88836040518060400160405280600b81526020016a2bb937b733a0b739bbb2b960a91b8152506110bd565b600181018054906000610ea783611351565b91905055505b50505b600101610d8c565b505050505050565b6000806000836002811115610ed757610ed7611325565b6002811115610ee857610ee8611325565b815260200190815260200160002090506000816006015467ffffffffffffffff811115610f1757610f17611399565b604051908082528060200260200182016040528015610f40578160200160208202803683370190505b5090506000805b6001840154811015610fde576000846001018281548110610f6a57610f6a611383565b60009182526020808320909101546001600160a01b03168083529087905260409091206002015490915060ff1615610fd55780848481518110610faf57610faf611383565b6001600160a01b039092166020928302919091019091015282610fd181611351565b9350505b50600101610f47565b5080156110ad576000818460020154610ff791906113af565b905060005b8281101561105f5783818151811061101657611016611383565b60200260200101516001600160a01b03166108fc839081150290604051600060405180830381858888f19350505050158015611056573d6000803e3d6000fd5b50600101610ffc565b5084600281111561107257611072611325565b7f3bc00db21d291373bca82dcfb352e261be4c03bb175735272408e8c18a2b5f6384836040516110a39291906113d1565b60405180910390a2505b5050600501805460ff1916905550565b60008060008560028111156110d4576110d4611325565b60028111156110e5576110e5611325565b8152602080820192909252604090810160009081206001600160a01b0387168252928390522060028101549192509060ff1615610bf85760028101805460ff1916905560068201805490600061113a836113f3565b9190505550836001600160a01b031685600281111561115b5761115b611325565b7f1e3a173e0a6861d7d4d32db2850bb48dbf41c094e10616053a68f771472e0015846003015486604051610c8092919061140a565b80356003811061119f57600080fd5b919050565b600080604083850312156111b757600080fd5b6111c083611190565b946020939093013593505050565b600080604083850312156111e157600080fd5b6111ea83611190565b9150602083013580151581146111ff57600080fd5b809150509250929050565b80356001600160a01b038116811461119f57600080fd5b60008060006060848603121561123657600080fd5b61123f84611190565b9250602084013591506112546040850161120a565b90509250925092565b60006020828403121561126f57600080fd5b6112788261120a565b9392505050565b6000806040838503121561129257600080fd5b61129b83611190565b91506112a96020840161120a565b90509250929050565b6000602082840312156112c457600080fd5b61127882611190565b60008151808452602080850194506020840160005b838110156113075781516001600160a01b0316875295820195908201906001016112e2565b509495945050505050565b60208152600061127860208301846112cd565b634e487b7160e01b600052602160045260246000fd5b634e487b7160e01b600052601160045260246000fd5b6000600182016113635761136361133b565b5060010190565b8082018082111561137d5761137d61133b565b92915050565b634e487b7160e01b600052603260045260246000fd5b634e487b7160e01b600052604160045260246000fd5b6000826113cc57634e487b7160e01b600052601260045260246000fd5b500490565b6040815260006113e460408301856112cd565b90508260208301529392505050565b6000816114025761140261133b565b506000190190565b8281526000602060406020840152835180604085015260005b8181101561143f57858101830151858201606001528201611423565b506000606082860101526060601f19601f83011685010192505050939250505056fea264697066735822122016d558331acc40344c92d85178f24f714159e24d9026987b666a99e405f8c4ee64736f6c63430008190033d2f86ce9c03caccefe2ff4f5229d5b79d397adcabf9cfcfc3cc82c275a3f27d4",
  "linkReferences": {},
  "deployedLinkReferences": {}
}